{
  "address": "0x942DFf5Af350fd0816Bd03C91729633C293dB5dA",
  "abi": [
    {
      "inputs": [],
      "name": "BadSignature",
      "type": "error"
    },
    {
      "inputs": [],
      "name": "InvalidShortString",
      "type": "error"
    },
    {
      "inputs": [],
      "name": "InvalidatedOrder",
      "type": "error"
    },
    {
      "inputs": [],
      "name": "OrderExpired",
      "type": "error"
    },
    {
      "inputs": [],
      "name": "PartialFillNotAllowed",
      "type": "error"
    },
    {
      "inputs": [],
      "name": "PrivateOrder",
      "type": "error"
    },
    {
      "inputs": [
        {
          "internalType": "string",
          "name": "str",
          "type": "string"
        }
      ],
      "name": "StringTooLong",
      "type": "error"
    },
    {
      "inputs": [],
      "name": "SwapWithZeroAmount",
      "type": "error"
    },
    {
      "inputs": [],
      "name": "TakingAmountTooHigh",
      "type": "error"
    },
    {
      "inputs": [],
      "name": "TransferFromMakerToTakerFailed",
      "type": "error"
    },
    {
      "inputs": [],
      "name": "TransferFromTakerToMakerFailed",
      "type": "error"
    },
    {
      "anonymous": false,
      "inputs": [],
      "name": "EIP712DomainChanged",
      "type": "event"
    },
    {
      "anonymous": false,
      "inputs": [
        {
          "indexed": false,
          "internalType": "bytes32",
          "name": "orderHash",
          "type": "bytes32"
        }
      ],
      "name": "OrderCancelled",
      "type": "event"
    },
    {
      "anonymous": false,
      "inputs": [
        {
          "indexed": false,
          "internalType": "bytes32",
          "name": "orderHash",
          "type": "bytes32"
        },
        {
          "indexed": false,
          "internalType": "uint256",
          "name": "remainingAmount",
          "type": "uint256"
        }
      ],
      "name": "OrderFilled",
      "type": "event"
    },
    {
      "inputs": [],
      "name": "DOMAIN_SEPARATOR",
      "outputs": [
        {
          "internalType": "bytes32",
          "name": "",
          "type": "bytes32"
        }
      ],
      "stateMutability": "view",
      "type": "function"
    },
    {
      "inputs": [
        {
          "internalType": "MakerTraits",
          "name": "",
          "type": "uint256"
        },
        {
          "internalType": "bytes32",
          "name": "orderHash",
          "type": "bytes32"
        }
      ],
      "name": "cancelOrder",
      "outputs": [],
      "stateMutability": "nonpayable",
      "type": "function"
    },
    {
      "inputs": [],
      "name": "eip712Domain",
      "outputs": [
        {
          "internalType": "bytes1",
          "name": "fields",
          "type": "bytes1"
        },
        {
          "internalType": "string",
          "name": "name",
          "type": "string"
        },
        {
          "internalType": "string",
          "name": "version",
          "type": "string"
        },
        {
          "internalType": "uint256",
          "name": "chainId",
          "type": "uint256"
        },
        {
          "internalType": "address",
          "name": "verifyingContract",
          "type": "address"
        },
        {
          "internalType": "bytes32",
          "name": "salt",
          "type": "bytes32"
        },
        {
          "internalType": "uint256[]",
          "name": "extensions",
          "type": "uint256[]"
        }
      ],
      "stateMutability": "view",
      "type": "function"
    },
    {
      "inputs": [
        {
          "components": [
            {
              "internalType": "uint256",
              "name": "salt",
              "type": "uint256"
            },
            {
              "internalType": "Address",
              "name": "maker",
              "type": "uint256"
            },
            {
              "internalType": "Address",
              "name": "receiver",
              "type": "uint256"
            },
            {
              "internalType": "Address",
              "name": "makerAsset",
              "type": "uint256"
            },
            {
              "internalType": "Address",
              "name": "takerAsset",
              "type": "uint256"
            },
            {
              "internalType": "uint256",
              "name": "makingAmount",
              "type": "uint256"
            },
            {
              "internalType": "uint256",
              "name": "takingAmount",
              "type": "uint256"
            },
            {
              "internalType": "MakerTraits",
              "name": "makerTraits",
              "type": "uint256"
            }
          ],
          "internalType": "struct IOrderMixin.Order",
          "name": "order",
          "type": "tuple"
        },
        {
          "internalType": "bytes32",
          "name": "r",
          "type": "bytes32"
        },
        {
          "internalType": "bytes32",
          "name": "vs",
          "type": "bytes32"
        },
        {
          "internalType": "uint256",
          "name": "amount",
          "type": "uint256"
        },
        {
          "internalType": "TakerTraits",
          "name": "takerTraits",
          "type": "uint256"
        },
        {
          "internalType": "bytes",
          "name": "args",
          "type": "bytes"
        }
      ],
      "name": "fillOrderArgs",
      "outputs": [
        {
          "internalType": "uint256",
          "name": "makingAmount",
          "type": "uint256"
        },
        {
          "internalType": "uint256",
          "name": "takingAmount",
          "type": "uint256"
        },
        {
          "internalType": "bytes32",
          "name": "orderHash",
          "type": "bytes32"
        }
      ],
      "stateMutability": "payable",
      "type": "function"
    }
  ],
  "transactionHash": "0xa981e5ebb617e514e25c6bb4e81c49fb6875894623d9355913e18b692065e195",
  "args": [],
  "numDeployments": 1,
  "solcInputHash": "f33ccaeab9769402f90d691be0fc25f9",
  "bytecode": "0x61016080604052346200016057620000178162000164565b601a8152602081017f31696e6368204c696d6974204f726465722050726f746f636f6c000000000000815260405191620000518362000164565b6001835260208301600d60fa1b81526200006b8262000180565b926101209384526200007d856200034a565b92610140938452519020938460e05251902091610100938385524660a0526040519360208501917f8b73c3c69bb8fe3d512ecc4cf759cc79239f7b179b0ffacaa9a75d522b39400f8352604086015260608501524660808501523060a085015260a0845260c084019380851060018060401b038611176200014c57846040525190206080523060c0526115989384620004f2853960805184610de1015260a05184610ead015260c05184610db2015260e05184610e3001525183610e5601525182610a1201525181610a3b0152f35b634e487b7160e01b5f52604160045260245ffd5b5f80fd5b604081019081106001600160401b038211176200014c57604052565b8051602090818110156200021a5750601f825111620001bb5780825192015190808310620001ad57501790565b825f19910360031b1b161790565b90604051809263305a27a960e01b82528060048301528251908160248401525f935b82851062000200575050604492505f838284010152601f80199101168101030190fd5b8481018201518686016044015293810193859350620001dd565b906001600160401b0382116200014c575f54926001938481811c911680156200033f575b838210146200032b57601f8111620002f5575b5081601f84116001146200028f57509282939183925f9462000283575b50501b915f199060031b1c1916175f5560ff90565b015192505f806200026e565b919083601f1981165f8052845f20945f905b88838310620002da5750505010620002c1575b505050811b015f5560ff90565b01515f1960f88460031b161c191690555f8080620002b4565b858701518855909601959485019487935090810190620002a1565b5f805284601f845f20920160051c820191601f860160051c015b8281106200031f57505062000251565b5f81550185906200030f565b634e487b7160e01b5f52602260045260245ffd5b90607f16906200023e565b805160209081811015620003d65750601f825111620003775780825192015190808310620001ad57501790565b90604051809263305a27a960e01b82528060048301528251908160248401525f935b828510620003bc575050604492505f838284010152601f80199101168101030190fd5b848101820151868601604401529381019385935062000399565b9192916001600160401b0381116200014c5760019182548381811c91168015620004e6575b828210146200032b57601f8111620004b0575b5080601f83116001146200044c5750819293945f9262000440575b50505f19600383901b1c191690821b17905560ff90565b015190505f8062000429565b90601f19831695845f52825f20925f905b8882106200049857505083859697106200047f575b505050811b01905560ff90565b01515f1960f88460031b161c191690555f808062000472565b8087859682949686015181550195019301906200045d565b835f5283601f835f20920160051c820191601f850160051c015b828110620004da5750506200040e565b5f8155018490620004ca565b90607f1690620003fb56fe60806040526004361015610011575f80fd5b5f803560e01c80633644e51514610b4d57806384b0196e146109df578063b68fb020146109445763f497df7514610046575f80fd5b7ffffffffffffffffffffffffffffffffffffffffffffffffffffffffffffffffc36016101a08112610654576101008091126106545761012435610184359267ffffffffffffffff808511610654573660238601121561065457846004013590811161065457602485013660248388010111610654578181610164357f08000000000000000000000000000000000000000000000000000000000000001615610938575050816100f591610c6d565b60601c948160141161065457603801907fffffffffffffffffffffffffffffffffffffffffffffffffffffffffffffffec015b62ffffff6101643560e01c811691821561092c57808311610654578392808095019103915b6101643560c81c1691821561091f5782116106545760429091965b610120610173610d9b565b91604051907f3af21ec5a20011b88d3b7b4ed7c806cef05a5980cf34974bcd53566a131f7e4c82526004602083013720604051917f1901000000000000000000000000000000000000000000000000000000000000835260028301526022820152209473ffffffffffffffffffffffffffffffffffffffff602435161590811561084a575b50610820576102078383610ed3565b9015610819575069ffffffffffffffffffff8060e43516801591821561080d575b5050156107e35764ffffffffff60e43560501c1680151590816107d9575b506107af5760a4356101443511156107a55760a435955b61026c8660a43589878761100f565b9776ffffffffffffffffffffffffffffffffffffffffffffff61016435168061071d575b507f800000000000000000000000000000000000000000000000000000000000000060e43516151580610711575b6106e757888802156106bd5773ffffffffffffffffffffffffffffffffffffffff602435165f52600260205260405f20875f5260205260405f2060017fffffffffffffffffffffffffffffffffffffffffffffffffffffffffffffff0082541617905573ffffffffffffffffffffffffffffffffffffffff604051917f23b872dd000000000000000000000000000000000000000000000000000000008352816024351660048401521660248201528760448201526020816064815f73ffffffffffffffffffffffffffffffffffffffff8335165af1908115610649575f91610682575b50156106585760138111610592575b50507f080000000000000000000000000000000000000000000000000000000000000060e43516610460575b5050508160a435039260a4358411610433577ffec331350fce78ba658e082a71da20ac9f8d798a99b3c79681c8440cbfe77e0760406060958151908582526020820152a160405192835260208301526040820152f35b7f4e487b71000000000000000000000000000000000000000000000000000000005f52601160045260245ffd5b61046a8282611492565b9060243573ffffffffffffffffffffffffffffffffffffffff16818360138111610533575b505073ffffffffffffffffffffffffffffffffffffffff1693843b1561052f579285876104f88a958c989584986040519a8b998a9889977f462ebde200000000000000000000000000000000000000000000000000000000895260a43594339260048b01610cef565b03925af180156105245761050d575b806103dd565b6105178291610be9565b6105215780610507565b80fd5b6040513d84823e3d90fd5b8580fd5b92509250506105428183610c6d565b60601c918160141161052f577fffffffffffffffffffffffffffffffffffffffffffffffffffffffffffffffec601473ffffffffffffffffffffffffffffffffffffffff9201920192905f61048f565b61059c8183610c6d565b60601c918160141161065457823b156106545783927fffffffffffffffffffffffffffffffffffffffffffffffffffffffffffffffec5f80946106216014958c8f8f908d916040519c8d9b8c9a8b997fadf38ba1000000000000000000000000000000000000000000000000000000008b520196019460a43594339260048b01610cef565b03925af1801561064957610636575b806103b1565b610641919350610be9565b5f915f610630565b6040513d5f823e3d90fd5b5f80fd5b60046040517f70a03f48000000000000000000000000000000000000000000000000000000008152fd5b90506020813d6020116106b5575b8161069d60209383610c19565b8101031261065457518015158103610654575f6103a2565b3d9150610690565b60046040517ffba5a276000000000000000000000000000000000000000000000000000000008152fd5b60046040517f8ef0017c000000000000000000000000000000000000000000000000000000008152fd5b5060a4358814156102be565b61014435890361075e578911610734575b5f610290565b60046040517ffb8ae129000000000000000000000000000000000000000000000000000000008152fd5b6107758961076f610144358d610c5a565b92610c5a565b101561072e5760046040517ffb8ae129000000000000000000000000000000000000000000000000000000008152fd5b610144359561025d565b60046040517fc56873ba000000000000000000000000000000000000000000000000000000008152fd5b905042115f610246565b60046040517fd4dfdafe000000000000000000000000000000000000000000000000000000008152fd5b33161490505f80610228565b5f5260045ffd5b60046040517f5cd5d233000000000000000000000000000000000000000000000000000000008152fd5b5f91507f7fffffffffffffffffffffffffffffffffffffffffffffffffffffffffffffff81167f7fffffffffffffffffffffffffffffff5d576e7357a4501ddfe92f46681b20a181106108d1575b505073ffffffffffffffffffffffffffffffffffffffff1673ffffffffffffffffffffffffffffffffffffffff6024351614155f6101f8565b602092505f91608091604051918a835260ff1c601b0185830152610104356040830152606082015282805260015afa5073ffffffffffffffffffffffffffffffffffffffff5f51905f610898565b5050505f60425f96610168565b5f93849350909161014d565b92509550503394610128565b346106545760407ffffffffffffffffffffffffffffffffffffffffffffffffffffffffffffffffc360112610654577f5152abf959f6564662358c2e52b702259b78bac5ee7842a0f01937e670efcc7d6020602435335f526002825260405f20815f52825260405f2060017fffffffffffffffffffffffffffffffffffffffffffffffffffffffffffffff00825416179055604051908152a1005b34610654575f7ffffffffffffffffffffffffffffffffffffffffffffffffffffffffffffffffc36011261065457610a367f0000000000000000000000000000000000000000000000000000000000000000611197565b610a5f7f0000000000000000000000000000000000000000000000000000000000000000611308565b60405160208082019282841067ffffffffffffffff851117610b2057916020610ad58594610ac797966040525f84526040519788977f0f00000000000000000000000000000000000000000000000000000000000000895260e0858a015260e0890190610b8d565b908782036040890152610b8d565b914660608701523060808701525f60a087015285830360c087015251918281520192915f5b828110610b0957505050500390f35b835185528695509381019392810192600101610afa565b7f4e487b71000000000000000000000000000000000000000000000000000000005f52604160045260245ffd5b34610654575f7ffffffffffffffffffffffffffffffffffffffffffffffffffffffffffffffffc360112610654576020610b85610d9b565b604051908152f35b91908251928382525f5b848110610bd55750507fffffffffffffffffffffffffffffffffffffffffffffffffffffffffffffffe0601f845f6020809697860101520116010190565b602081830181015184830182015201610b97565b67ffffffffffffffff8111610b2057604052565b6040810190811067ffffffffffffffff821117610b2057604052565b90601f7fffffffffffffffffffffffffffffffffffffffffffffffffffffffffffffffe0910116810190811067ffffffffffffffff821117610b2057604052565b8181029291811591840414171561043357565b7fffffffffffffffffffffffffffffffffffffffff0000000000000000000000009035818116939260148110610ca257505050565b60140360031b82901b16169150565b601f82602094937fffffffffffffffffffffffffffffffffffffffffffffffffffffffffffffffe093818652868601375f8582860101520116010190565b949193610d6a73ffffffffffffffffffffffffffffffffffffffff92610d989b99969a98959a6101e0610d5b8a6004358152602435602082015260443560408201526064356060820152608435608082015260a43560a082015260c43560c082015260e060e435910152565b806101008b0152890191610cb1565b98610120870152166101408501526101608401526101808301526101a08201526101c0818503910152610cb1565b90565b73ffffffffffffffffffffffffffffffffffffffff7f000000000000000000000000000000000000000000000000000000000000000016301480610eaa575b15610e03577f000000000000000000000000000000000000000000000000000000000000000090565b60405160208101907f8b73c3c69bb8fe3d512ecc4cf759cc79239f7b179b0ffacaa9a75d522b39400f82527f000000000000000000000000000000000000000000000000000000000000000060408201527f000000000000000000000000000000000000000000000000000000000000000060608201524660808201523060a082015260a0815260c0810181811067ffffffffffffffff821117610b205760405251902090565b507f00000000000000000000000000000000000000000000000000000000000000004614610dda565b9060e4357f02000000000000000000000000000000000000000000000000000000000000001615610fe2578015610fba5767ffffffffffffffff8111610b205760405190610f4960207fffffffffffffffffffffffffffffffffffffffffffffffffffffffffffffffe0601f8401160183610c19565b8082526020820192368282011161065457815f9260209286378301015273ffffffffffffffffffffffffffffffffffffffff91829151902016906004351603610f94575b6001905f90565b5f907fdc11ee6b0000000000000000000000000000000000000000000000000000000090565b50505f907fb2d25e490000000000000000000000000000000000000000000000000000000090565b905015610f8d575f907f74896a7b0000000000000000000000000000000000000000000000000000000090565b9390919361101d8382611511565b9390948415611182576110308587610c6d565b60601c93856014116106545760209660147fffffffffffffffffffffffffffffffffffffffffffffffffffffffffffffffec6110f19861113e956040519c8d9b8c9a8b9a7fd7ff8a80000000000000000000000000000000000000000000000000000000008c526110dd60048d016004358152602435602082015260443560408201526064356060820152608435608082015260a43560a082015260c43560c082015260e060e435910152565b6101c06101048d01526101c48c0191610cb1565b966101248a0152336101448a01526101648901526101848801527ffffffffffffffffffffffffffffffffffffffffffffffffffffffffffffffffc878603016101a4880152019101610cb1565b03915afa908115610649575f91611153575090565b90506020813d60201161117a575b8161116e60209383610c19565b81010312610654575190565b3d9150611161565b505050505050610d989060c43560a435611410565b60ff81146111ed5760ff811690601f82116111c357604051916111b983610bfd565b8252602082015290565b60046040517fb3512b0c000000000000000000000000000000000000000000000000000000008152fd5b506040515f8054906001908260011c600184169283156112fe575b60209485831085146112d15782875286949081156112925750600114611237575b5050610d9892500382610c19565b5f8080527f290decd9548b62a8d60345a988386fc84ba6bc95484008f6362f93160ef3e56395935091905b81831061127a575050610d9893508201015f80611229565b85548784018501529485019486945091830191611262565b9050610d989593507fffffffffffffffffffffffffffffffffffffffffffffffffffffffffffffff0091501682840152151560051b8201015f80611229565b7f4e487b71000000000000000000000000000000000000000000000000000000005f52602260045260245ffd5b90607f1690611208565b60ff811461132a5760ff811690601f82116111c357604051916111b983610bfd565b506040515f60018054918260011c600184169283156113cf575b60209485831085146112d15782875286949081156112925750600114611372575050610d9892500382610c19565b9093915060015f527fb10e2d527612073b26eecdfd717e6a320cf44b4afac2b0732d9fcbe2b7fa0cf6935f915b8183106113b7575050610d9893508201015f80611229565b8554878401850152948501948694509183019161139f565b90607f1690611344565b81156113e3570490565b7f4e487b71000000000000000000000000000000000000000000000000000000005f52601260045260245ffd5b9080831760801c15611464576114269192610c5a565b90808201809211610433577fffffffffffffffffffffffffffffffffffffffffffffffffffffffffffffffff820191821161043357610d98916113d9565b610d98920281017fffffffffffffffffffffffffffffffffffffffffffffffffffffffffffffffff016113d9565b91909160208310611509578035907fffffffffffffffffffffffffffffffffffffffffffffffffffffffffffffffe063ffffffff8360c01c169260e01c940184116114e1578101602001920390565b7f9605a010000000000000000000000000000000000000000000000000000000005f5260045ffd5b505f91508190565b91909160208310611509578035907fffffffffffffffffffffffffffffffffffffffffffffffffffffffffffffffe063ffffffff808460401c169360601c16940184116114e157810160200192039056fea264697066735822122094ff16007a5beed5b116b765fb852456f5eb3cc67cbf1cc989d0dbaa65f2fa2664736f6c63430008170033",
  "devdoc": {
    "events": {
      "EIP712DomainChanged()": {
        "details": "MAY be emitted to signal that the domain could have changed."
      },
      "OrderCancelled(bytes32)": {
        "params": {
          "orderHash": "Hash of the order"
        }
      },
      "OrderFilled(bytes32,uint256)": {
        "params": {
          "orderHash": "Hash of the order",
          "remainingAmount": "Amount of the maker asset that remains to be filled"
        }
      }
    },
    "kind": "dev",
    "methods": {
      "DOMAIN_SEPARATOR()": {
        "details": "Returns the domain separator for the current chain (EIP-712)"
      },
      "eip712Domain()": {
        "details": "See {IERC-5267}."
      }
    },
    "title": "##1inch Limit Order Protocol v4",
    "version": 1
  },
  "userdoc": {
    "events": {
      "OrderCancelled(bytes32)": {
        "notice": "Emitted when order without `useBitInvalidator` gets cancelled"
      },
      "OrderFilled(bytes32,uint256)": {
        "notice": "Emitted when order gets filled"
      }
    },
    "kind": "user",
    "methods": {
      "cancelOrder(uint256,bytes32)": {
        "notice": "See {IOrderMixin-cancelOrder}."
      },
      "fillOrderArgs((uint256,uint256,uint256,uint256,uint256,uint256,uint256,uint256),bytes32,bytes32,uint256,uint256,bytes)": {
        "notice": "See {IOrderMixin-fillOrderArgs}."
      }
    },
    "notice": "Limit order protocol provides two different order types - Regular Limit Order - RFQ Order Both types provide similar order-fulfilling functionality. The difference is that regular order offers more customization options and features, while RFQ order is extremely gas efficient but without ability to customize. Regular limit order additionally supports - Execution predicates. Conditions for order execution are set with predicates. For example, expiration timestamp or block number, price for stop loss or take profit strategies. - Callbacks to notify maker on order execution See [OrderMixin](OrderMixin.md) for more details. RFQ orders supports - Expiration time - Cancelation by order id - Partial Fill (only once) See [OrderMixin](OrderMixin.md) for more details.",
    "version": 1
  },
  "storageLayout": {
    "storage": [
      {
        "astId": 1416,
        "contract": "contracts/LimitOrderProtocol.sol:LimitOrderProtocol",
        "label": "_nameFallback",
        "offset": 0,
        "slot": "0",
        "type": "t_string_storage"
      },
      {
        "astId": 1418,
        "contract": "contracts/LimitOrderProtocol.sol:LimitOrderProtocol",
        "label": "_versionFallback",
        "offset": 0,
        "slot": "1",
        "type": "t_string_storage"
      },
      {
        "astId": 5563,
        "contract": "contracts/LimitOrderProtocol.sol:LimitOrderProtocol",
        "label": "_orderFinished",
        "offset": 0,
        "slot": "2",
        "type": "t_mapping(t_address,t_mapping(t_bytes32,t_bool))"
      }
    ],
    "types": {
      "t_address": {
        "encoding": "inplace",
        "label": "address",
        "numberOfBytes": "20"
      },
      "t_bool": {
        "encoding": "inplace",
        "label": "bool",
        "numberOfBytes": "1"
      },
      "t_bytes32": {
        "encoding": "inplace",
        "label": "bytes32",
        "numberOfBytes": "32"
      },
      "t_mapping(t_address,t_mapping(t_bytes32,t_bool))": {
        "encoding": "mapping",
        "key": "t_address",
        "label": "mapping(address => mapping(bytes32 => bool))",
        "numberOfBytes": "32",
        "value": "t_mapping(t_bytes32,t_bool)"
      },
      "t_mapping(t_bytes32,t_bool)": {
        "encoding": "mapping",
        "key": "t_bytes32",
        "label": "mapping(bytes32 => bool)",
        "numberOfBytes": "32",
        "value": "t_bool"
      },
      "t_string_storage": {
        "encoding": "bytes",
        "label": "string",
        "numberOfBytes": "32"
      }
    }
  }
}